:020000040800F2
:1000000000500020890B0008390900083B0900084E
:100010003D0900083F0900084109000800000000F0
:10002000000000000000000000000000430900087C
:1000300045090008000000004709000849090008B8
:10004000D10B0008D10B0008D10B0008D10B000820
:10005000D10B0008D10B0008D10B00085109000892
:10006000D10B0008D10B0008D10B0008D10B000800
:10007000D10B0008D10B0008D10B0008D10B0008F0
:10008000D10B0008D10B0008D10B0008D10B0008E0
:10009000D10B0008D10B0008D10B0008D10B0008D0
:1000A000D10B00085D090008D10B0008D10B000836
:1000B0006D090008D10B0008D10B0008D10B000816
:1000C000D10B0008D10B0008D10B0008D10B0008A0
:1000D000D10B0008D10B0008D10B0008D10B000890
:1000E000D10B0008D10B0008D10B00080000000064
:1000F0000000000000000000000000000000000000
:0C01000000000000000000005FF808F1A3
:10010C0010B5054C237833B9044B13B10448AFF345
:10011C0000800123237010BD3C040020000000006F
:10012C003020000808B5034B1BB103490348AFF35B
:10013C00008008BD000000004004002030200008B2
:10014C002DE9F04188B0002404940594069407949A
:10015C002F4B9A6942F010029A619A6902F01002D0
:10016C000092009A9A6942F020029A619A6902F010
:10017C0020020192019A9A6942F004029A619A69EA
:10018C0002F004020292029A9A6942F008029A6101
:10019C009B6903F008030393039B1E4E22464FF406
:1001AC00F871304600F0F3FE1B4F22464FF6074124
:1001BC00384600F0ECFE02250495184B0593069486
:1001CC0004A9304600F0CAFD4FF4F87304934FF0C5
:1001DC000108CDF814800694079504A9304600F068
:1001EC00BDFD4FF607430493CDF814800694079594
:1001FC0004A9384600F0B2FD22462146072000F043
:10020C0053FD072000F088FD08B0BDE8F08100BF69
:10021C000010024000080140000C014000001110C9
:10022C0038B5012000F01AFD01224FF4B871A64830
:10023C0000F0ADFE01224FF44041A44800F0A7FEAF
:10024C00A34B1B78052B0AD8DFE803F0031B2229EC
:10025C002F3500224FF480719B4800F098FE9C4B88
:10026C001B789C4AD35C092B3ED8DFE813F02A009C
:10027C004800620076008A00A500C000DB00F60092
:10028C00110100224FF40041904800F080FEE6E797
:10029C0000224FF480418D4800F079FEDFE7002208
:1002AC004021894800F073FED9E7002220218648BE
:1002BC0000F06DFED3E700221021834800F067FEAA
:1002CC00CDE7824C002242F20741204600F05FFE4F
:1002DC0000224FF402517C4800F059FE01224FF4E9
:1002EC00C051204600F053FE794A13780133DBB23B
:1002FC001370052B02D9134600221A7038BD724DAB
:10030C0000224FF40051284600F041FE6F4C0022B1
:10031C004FF41051204600F03AFE0122802128466D
:10032C0000F035FE012241F60701204600F02FFEB9
:10033C00DAE7664C002241F20501204600F027FE68
:10034C0000224FF40251604800F021FE012240F6D9
:10035C000241204600F01BFEC6E75C4C002241F235
:10036C000441204600F013FE00224FF4025156487F
:10037C0000F00DFE012240F60301204600F007FEBE
:10038C00B2E7514D002243F20241284600F0FFFD36
:10039C004E4C002243F20241204600F0F8FD0122AF
:1003AC0040F68501284600F0F2FD012240F6850159
:1003BC00204600F0ECFD97E7434D002241F28641C8
:1003CC00284600F0E4FD414C002241F286412046D3
:1003DC0000F0DDFD012242F60101284600F0D7FDB8
:1003EC00012242F60101204600F0D1FD7CE7364D9A
:1003FC00002241F28741284600F0C9FD334C00220F
:10040C0041F28741204600F0C2FD01224FF42051F9
:10041C00284600F0BCFD01224FF42051204600F08C
:10042C00B6FD61E7284D002242F20441284600F057
:10043C00AEFD264C002242F20441204600F0A7FDFE
:10044C00012241F68301284600F0A1FD012241F66C
:10045C008301204600F09BFD46E71B4D002243F232
:10046C008741284600F093FD184C002243F2874147
:10047C00204600F08CFD01224FF40061284600F06C
:10048C0086FD01224FF40061204600F080FD2BE731
:10049C000D4D002243F28641284600F078FD0B4CAE
:1004AC00002243F28641204600F071FD012240F605
:1004BC000101284600F06BFD012240F601012046A7
:1004CC0000F065FD10E700BF00080140000C014082
:1004DC00580400205C04002010B5244B1B88B3F595
:1004EC007A7F06D3214B00221A80214A13780133DC
:1004FC0013701E4B19881E4B93F800C01D481E4BE1
:10050C00A3FB0142D20802EB820E4FEA4E04091BF8
:10051C00417191B2A3FB0142D20802EB82044FEA73
:10052C00440EA1EB0E01017192B2A3FB0241C9086A
:10053C0001EB81014FEA410EA2EB0E02C270A3FB4C
:10054C000C12D20802EB820E4FEA4E01ACEB010CFE
:10055C0080F802C0D2B2A3FB0213DB0803EB830CBE
:10056C004FEA4C01521A4270037010BD6C0400200B
:10057C006E0400205C040020CDCCCCCC08B5884B9C
:10058C001A88884BA3FB0213D11A03EB51031B09E6
:10059C00C3EB4313D31A9BB2002B4CD1824B1B6879
:1005AC00B3F5007F02D3804B00221A607E4A136899
:1005BC00591C11607D4A52F82330013B242B2AD858
:1005CC00DFE813F025003A003F00440049004E00DC
:1005DC00530058005D00620067006C0071007600EB
:1005EC007B00800085008A008F00940099009E009B
:1005FC00A300A800AD00B200B700BC00C100C6004B
:10060C00CB00D000D500DA00DF00E400E900684B35
:10061C004FF483721A60664B1A68664BB3FBF2F3A5
:10062C0065480268013BD362C360002151625B08DC
:10063C00536301F029FB08BD5D4B40F215121A60A3
:10064C00E9E75B4B4FF493721A60E4E7584B40F2C6
:10065C0037121A60DFE7564B4FF4A5721A60DAE7CF
:10066C00534B40F25D121A60D5E7514B4FF4B972FF
:10067C001A60D0E74E4B4FF4C4721A60CBE74C4B68
:10068C0040F29F121A60C6E7494B4FF4DC721A60B5
:10069C00C1E7474B4FF4E9721A60BCE7444B4FF487
:1006AC00F7721A60B7E7424B40F20B221A60B2E7BE
:1006BC003F4B40F22A221A60ADE73D4B40F24B22F1
:1006CC001A60A8E73A4B40F26E221A60A3E7384B47
:1006DC0040F293221A609EE7354B40F2BA221A6020
:1006EC0099E7334B4FF439721A6094E7304B4FF45F
:1006FC0044721A608FE72E4B40F23F321A608AE741
:10070C002B4B4FF45C721A6085E7294B4FF46972DE
:10071C001A6080E7264B4FF477721A607BE7244B04
:10072C0040F216421A6076E7214B40F255421A60AD
:10073C0071E71F4B40F297421A606CE71C4B40F27A
:10074C00DD421A6067E71A4B40F227521A6062E7E3
:10075C00174B40F275521A605DE7154B4FF4B962B6
:10076C001A6058E7124B4FF4C4621A6053E7104BEF
:10077C0040F27D621A604EE70D4B4FF4DC621A605A
:10078C0049E70B4B40F249721A6044E7084B40F2C0
:10079C00AF721A603FE7064B01221A603BE700BFBD
:1007AC006C040020851042086404002048200008D6
:1007BC006804002040420F00BC0400200268044B77
:1007CC009A4200D07047034A138801331380F9E72B
:1007DC00002C01406C04002008B50221044800F0F4
:1007EC00CFFB012800D008BD024B00221A70FAE79B
:1007FC00000801407004002072B6FEE700B591B00D
:10080C002822002106A801F04BFB00230193029340
:10081C00039304930593012206924FF480330793BC
:10082C000A9202220D920E934FF4E0130F9306A836
:10083C0000F0D8FB80B90F23019302210291002311
:10084C0003934FF480620492059301A800F00AFE12
:10085C0020B911B05DF804FBFFF7CEFFFFF7CCFF1A
:10086C0008B500F0D7F9FFF7C9FFFFF769FC00F0F6
:10087C002FF900F07FF81A4800F05CFF194800F0DF
:10088C0059FF14E0184B1A78184B1A70184B0122A8
:10089C001A700021134801F065FA164B1B78012BD6
:1008AC0003D1FFF719FEFFF769FEFFF7B9FC104BF8
:1008BC001B78002BF1D10F4A1378B3FA83F35B0941
:1008CC001370002BDED0084B1A78084B1B789A4219
:1008DC00D8D10023084A1380034A1370D6E700BF0F
:1008EC0074040020BC0400206E0400206F0400205F
:1008FC0070040020000000206C04002082B00A4B21
:10090C009A6942F001029A619A6902F0010200921E
:10091C00009ADA6942F08052DA61DB6903F08053A5
:10092C000193019B02B0704700100240FEE7FEE706
:10093C00FEE7FEE7FEE770477047704708B500F02A
:10094C007BF908BD08B5022000F028FB08BD0000AB
:10095C0008B5024800F027FF08BD00BF7404002052
:10096C0008B5024800F01FFF08BD00BFBC04002002
:10097C007047000000B587B00023029303930493E3
:10098C000593009301931548154A02604722426073
:10099C00836040F2E732C26003614361836100F01F
:1009AC00F9FF90B94FF48053029302A90B4801F060
:1009BC00EFF868B90023009301936946074801F0EA
:1009CC0013FA40B907B05DF804FBFFF715FFE9E730
:1009DC00FFF712FFEEE7FFF70FFFF3E774040020B9
:1009EC00002C014000B589B00023049305930693B5
:1009FC0007930368204A934205D0B3F1804F15D07A
:100A0C0009B05DF804FB1D4B9A6942F400629A61CF
:100A1C009B6903F400630193019B0022114619208A
:100A2C0000F042F9192000F077F9E9E703F50433F7
:100A3C00DA6942F00102DA61DA6902F0010202922B
:100A4C00029A9A6942F004029A619B6903F00403CA
:100A5C000393039B0423049302230593079304A994
:100A6C00074800F07BF9002201211C2000F01CF942
:100A7C001C2000F051F9C3E7002C0140001002408B
:100A8C000008014000B587B0002302930393049340
:100A9C0005930368B3F1804F02D007B05DF804FBF7
:100AAC0003F504339A6942F004029A619B6903F0DE
:100ABC0004030193019B01230293022303930593E7
:100ACC0002A9024800F04AF9E7E700BF000801401C
:100ADC0000B58FB000230A930B930C930D930893DE
:100AEC00099301930293039304930593069307933D
:100AFC0021484FF08042026047224260836040F2FE
:100B0C00E732C2600361836100F044FF20BB4FF405
:100B1C0080530A930AA9184801F03AF8F8B9164814
:100B2C0000F064FFF0B900230893099308A9124858
:100B3C0001F05AF9C8B96023019300220292039282
:100B4C00059201A90C4800F0AFFF88B90A48FFF7DD
:100B5C0099FF0FB05DF804FBFFF74EFED7E7FFF7E8
:100B6C004BFEDCE7FFF748FEDDE7FFF745FEE2E76B
:100B7C00FFF742FEEAE700BFBC0400200C480D4919
:100B8C000D4A002302E0D458C4500433C4188C42DC
:100B9C00F9D30A4A0A4C002301E013600432A24242
:100BAC00FBD3FFF7E5FE01F057F9FFF759FE70474D
:100BBC00000000203C0400207C2800083C0400209D
:100BCC000C050020FEE7000010B504460E4B18780B
:100BDC004FF47A73B3FBF0F30C4A1068B0FBF3F0EC
:100BEC0000F0A8F868B90F2C01D901200AE0002206
:100BFC0021464FF0FF3000F057F8054B1C600020E9
:100C0C0000E0012010BD00BF0800002004000020FF
:100C1C000C00002008B5074A136843F0100313605A
:100C2C00032000F02FF80F20FFF7CEFFFFF766FE32
:100C3C00002008BD00200240034A1168034B1B78BA
:100C4C000B441360704700BF04050020080000200F
:100C5C00014B1868704700BF0405002038B50446E6
:100C6C00FFF7F6FF0546B4F1FF3F02D0044B1B78AB
:100C7C001C44FFF7EDFF401BA042FAD338BD00BF68
:100C8C0008000020074AD36823F4E0631B041B0C04
:100C9C00000200F4E060034343F0BF6343F400330D
:100CAC00D360704700ED00E000B5194BDB68C3F36F
:100CBC000223C3F1070CBCF1040F28BF4FF0040C46
:100CCC0003F1040EBEF1060F18D9033B4FF0FF3EA3
:100CDC000EFA0CFC21EA0C0199400EFA03F322EAFD
:100CEC000303194300280BDB0901C9B200F1604072
:100CFC0000F5614080F800135DF804FB0023E5E784
:100D0C0000F00F000901C9B2024B1954F4E700BFFF
:100D1C0000ED00E014ED00E0002807DB00F01F02FE
:100D2C00400901239340024A42F82030704700BF2B
:100D3C0000E100E00138B0F1807F0BD24FF0E023EE
:100D4C005861054AF02182F823100020986107228F
:100D5C001A6170470120704700ED00E070B582B059
:100D6C000024A446A6E0804DAA4210D007D97F4D9E
:100D7C00AA420CD005F58035AA4208D013E0A5F59F
:100D8C008015AA4203D005F57025AA4207D18A68BE
:100D9C00002A58D0012A51D04361082403E0A5F55C
:100DAC008015AA42F3D0BEF1FF0F4ED80646BEF115
:100DBC00FF0F4CD84FEA8C0233680F25954023EA7D
:100DCC00050304FA02F2134333604B6813F0805F9F
:100DDC006ED0674B9A6942F001029A619B6903F0ED
:100DEC0001030193019B4FEA9C02951C614B53F844
:100DFC0025600CF003039D000F23AB4026EA03068D
:100E0C005D4B984229D003F58063984200F08E80A8
:100E1C0003F58063984200F08B8003F58063984261
:100E2C0019D004231AE0CC68BDE7CC680434BAE7C7
:100E3C00CC680834B7E7CC680C34B4E703610824F9
:100E4C00B1E70024AFE70424ADE7061DAFE7ACF132
:100E5C0008029200B0E7032300E00023AB403343C9
:100E6C000232444D45F822304B6813F4803F61D078
:100E7C00424A136843EA0E0313604B6813F4003FB5
:100E8C005ED03E4A536843EA0E0353604B6813F43A
:100E9C00801F5BD0394A936843EA0E0393604B681A
:100EAC0013F4001F58D0354AD36843EA0E03D360BD
:100EBC000CF1010C0A6832FA0CF353D0012303FA3B
:100ECC000CF302EA030E33EA0202F1D14A68122A49
:100EDC003FF649AF122A3FF666AF01A555F822F04E
:100EEC009B0D0008330E00083D0E00084F0E000845
:100EFC00B30D0008B30D0008B30D0008B30D0008C6
:100F0C00B30D0008B30D0008B30D0008B30D0008B5
:100F1C00B30D0008B30D0008B30D0008B30D0008A5
:100F2C00B30D0008370E0008430E0008012395E7A7
:100F3C00022393E7114A136823EA0E0313609CE71C
:100F4C000E4A536823EA0E0353609FE70B4A9368DB
:100F5C0023EA0E039360A2E7084AD36823EA0E0340
:100F6C00D360A5E702B070BD000022100000311064
:100F7C000010024000000140000801400004014044
:100F8C008368194201D001207047002070470AB1D4
:100F9C0001617047090401617047000008B5054BF9
:100FAC005B69034200D108BD024B5861FFF714FC8A
:100FBC00F9E700BF0004014082B0084B1B68084AE7
:100FCC00A2FB03235B0A00FB03F3019300BF019B0D
:100FDC005A1E0192002BF9D102B070470400002078
:100FEC00D34D6210002800F0F18170B582B0044638
:100FFC00036813F0010F2CD0994B5B6803F00C03C2
:10100C00042B1DD0964B5B6803F00C03082B12D0FD
:10101C006368B3F5803F41D0002B55D103F1804379
:10102C0003F504331A6822F480321A601A6822F429
:10103C0080221A6037E08A4B5B6813F4803FE7D05C
:10104C00874B1B6813F4003F03D06368002B00F040
:10105C00BF81236813F0020F75D0814B5B6813F0CE
:10106C000C0F5FD07E4B5B6803F00C03082B54D045
:10107C002369002B00F08A807A4B01221A60FFF75B
:10108C00E7FD0546764B1B6813F0020F75D1FFF791
:10109C00DFFD401B0228F5D903209EE1704A13683E
:1010AC0043F480331360636843B3FFF7D1FD054607
:1010BC006B4B1B6813F4003FCBD1FFF7C9FD401BF2
:1010CC006428F5D9032088E1B3F5A02F09D0644B2F
:1010DC001A6822F480321A601A6822F480221A608C
:1010EC00E1E703F18043A3F53C331A6842F4802214
:1010FC001A601A6842F480321A60D4E7FFF7A8FD30
:10110C000546574B1B6813F4003FA2D0FFF7A0FD18
:10111C00401B6428F5D903205FE1514B5B6813F445
:10112C00803FA5D14E4B1B6813F0020F03D02369EF
:10113C00012B40F04F814A4A136823F0F803616990
:10114C0043EAC1031360236813F0080F33D0A3697B
:10115C00002B5CD0434B0122C3F88024FFF778FDB1
:10116C0005463F4B5B6A13F0020F21D1FFF770FD70
:10117C00401B0228F5D903202FE1394A136823F0CC
:10118C00F803616943EAC1031360DCE7354B0022C5
:10119C001A60FFF75DFD0546314B1B6813F0020F1B
:1011AC00D1D0FFF755FD401B0228F5D9032014E1DF
:1011BC000120FFF701FF236813F0040F00F0968065
:1011CC00274BDB6913F0805F34D1254BDA6942F091
:1011DC008052DA61DB6903F080530193019B012596
:1011EC00214B1B6813F4807F26D0E368012B3DD084
:1011FC00002B53D103F1804303F504331A6A22F018
:10120C0001021A621A6A22F004021A6233E0154BC8
:10121C000022C3F88024FFF71BFD0546104B5B6AC8
:10122C0013F0020FC7D0FFF713FD401B0228F5D9AE
:10123C000320D2E00025D3E70B4A136843F48073F4
:10124C001360FFF705FD0646074B1B6813F4807F00
:10125C00CBD1FFF7FDFC801B6428F5D90320BCE043
:10126C000010024000004242007000405F4A136AC6
:10127C0043F001031362E36833B3FFF7E9FC06465E
:10128C005A4B1B6A13F0020F2FD1FFF7E1FC801BA6
:10129C0041F288339842F3D903209EE0052B09D004
:1012AC00524B1A6A22F001021A621A6A22F00402E4
:1012BC001A62E0E74D4B1A6A42F004021A621A6A8B
:1012CC0042F001021A62D6E7FFF7C2FC0646474B12
:1012DC001B6A13F0020F08D0FFF7BAFC801B41F217
:1012EC0088339842F3D9032077E0E5B9E369002B02
:1012FC0072D03E4A526802F00C02082A56D0022BD9
:10130C0017D03B4B00221A66FFF7A2FC0446374B62
:10131C001B6813F0007F47D0FFF79AFC001B0228D4
:10132C00F5D9032059E0314AD36923F08053D361B6
:10133C00DCE72F4B00221A66FFF78AFC05462B4B85
:10134C001B6813F0007F06D0FFF782FC401B0228BD
:10135C00F5D9032041E0236AB3F5803F1AD0234925
:10136C004B6823F47413226A606A024313434B6084
:10137C001F4B01221A66FFF76BFC04461B4B1B68C4
:10138C0013F0007F0ED1FFF763FC001B0228F5D988
:10139C00032022E0154A536823F40033A1680B4361
:1013AC005360DCE7002018E0002016E0012B16D07B
:1013BC000E4B5B6803F48031226A914211D103F425
:1013CC007013626A93420ED1002006E00120704730
:1013DC00012002E0012000E0002002B070BD0120DD
:1013EC00FBE70120F9E70120F7E700BF00100240FE
:1013FC000000424286B0174B0FCB0DF1180C0CE9D4
:10140C000F0040F20123ADF80430134B5B6803F07E
:10141C000C02082A02D0114806B07047C3F383426D
:10142C0018326A4412F8100C13F4803F0DD00A4B9A
:10143C005B68C3F3404318336B4413F8143C074AFE
:10144C0002FB00F0B0FBF3F0E6E7054B03FB00F00A
:10145C00E2E700BF582800080010024000127A0092
:10146C0000093D00002800F0A08070B50D46044630
:10147C00524B1B6803F007038B420BD24F4A136885
:10148C0023F007030B431360136803F007038B422D
:10149C0040F08D80236813F0020F17D013F0040F67
:1014AC0004D0474A536843F4E0635360236813F055
:1014BC00080F04D0424A536843F460535360404AC7
:1014CC00536823F0F003A1680B435360236813F0B7
:1014DC00010F31D06368012B20D0022B25D0384A64
:1014EC00126812F0020F64D035494A6822F00302E8
:1014FC0013434B60FFF7ACFB0646314B5B6803F0C4
:10150C000C036268B3EB820F16D0FFF7A1FB801BB4
:10151C0041F288339842F0D9032045E0284A1268FA
:10152C0012F4003FE0D101203EE0254A126812F08F
:10153C00007FD9D1012037E0204B1B6803F0070353
:10154C00AB420AD91D4A136823F007032B431360DF
:10155C00136803F00703AB422DD1236813F0040F7B
:10156C0006D0174A536823F4E063E1680B435360D9
:10157C00236813F0080F07D0114A536823F4605303
:10158C00216943EAC1035360FFF734FF0C4B5B68DE
:10159C00C3F303130B4AD35CD8400B4B18600B4BB3
:1015AC001868FFF711FB002070BD01207047012067
:1015BC00FAE70120F8E70120F6E700BF002002401F
:1015CC000010024048280008040000200C000020F5
:1015DC0070B4036A23F001030362036A46688269EC
:1015EC0022F073020C6844EA020523F002028B68B5
:1015FC0013430D4CA04209D00B4CA0420DD04660B9
:10160C0085614A684263036270BC704723F008032B
:10161C00CA68134323F00403EEE726F440764A69C4
:10162C0032438E691643EAE7002C014030B4036A5A
:10163C0023F480730362036A4568C26922F0730263
:10164C000C68224323F400738C6843EA04230F4C88
:10165C00A04209D00D4CA0420ED04560C2614A6830
:10166C00C263036230BC704723F40063CC6843EA66
:10167C00042323F48063EDE725F440554C6945EAD7
:10168C0004158C6945EA0415E7E700BF002C0140FE
:10169C0030B4036A23F480530362036A4468C2695A
:1016AC0022F4E6420D6842EA052223F400538D68C9
:1016BC0043EA0533074DA84206D04460C2614A682C
:1016CC000264036230BC704724F480444D6944EAE0
:1016DC008514F2E7002C014010B4036A046A24F06C
:1016EC0001040462846924F0F00C4CEA021223F029
:1016FC000A030B438261036210BC704710B4046A86
:10170C0024F0100404628469036A24F4704C4CEADB
:10171C00023223F0A00343EA01138261036210BC7E
:10172C007047836823F070030B4343F00703836017
:10173C007047000090F83D30DBB2012B27D102231B
:10174C0080F83D300268D36843F00103D36003682E
:10175C00114A934210D0B3F1804F0DD0A2F59432C0
:10176C00934209D002F58062934205D01A6842F088
:10177C0001021A60002070479A6802F00702062ADC
:10178C0007D01A6842F001021A600020704701204D
:10179C0070470020704700BF002C01407047704715
:1017AC0070477047704710B5044603681A6912F009
:1017BC00020F11D0DA6812F0020F0DD06FF0020296
:1017CC001A610123037703689B6913F0030F70D030
:1017DC00FFF7E6FF0023237723681A6912F0040F42
:1017EC0012D0DA6812F0040F0ED06FF004021A61F6
:1017FC000223237723689B6913F4407F5FD0204634
:10180C00FFF7CEFF0023237723681A6912F0080F25
:10181C0012D0DA6812F0080F0ED06FF008021A61BD
:10182C00042323772368DB6913F0030F4ED0204683
:10183C00FFF7B6FF0023237723681A6912F0100F05
:10184C0012D0DA6812F0100F0ED06FF010021A617D
:10185C00082323772368DB6913F4407F3DD02046AF
:10186C00FFF79EFF0023237723681A6912F0010FFC
:10187C0003D0DA6812F0010F36D123681A6912F01E
:10188C00800F03D0DA6812F0800F34D123681A6904
:10189C0012F0400F03D0DA6812F0400F32D12368F7
:1018AC001A6912F0200F03D0DA6812F0200F30D131
:1018BC0010BDFFF774FF2046FFF773FF8AE7204641
:1018CC00FFF76DFF2046FFF76CFF9BE72046FFF705
:1018DC0066FF2046FFF765FFACE72046FFF75FFF8A
:1018EC002046FFF75EFFBDE76FF001021A6120464C
:1018FC00FEF764FFC1E76FF080021A61204600F02A
:10190C00AAFAC3E76FF040021A612046FFF74AFFBC
:10191C00C5E76FF020021A61204600F09BFAC7E77A
:10192C0003681B4A90420AD0B0F1804F07D0A2F551
:10193C009432904203D002F58062904203D123F09E
:10194C0070034A681343124A90420AD0B0F1804F98
:10195C0007D0A2F59432904203D002F580629042F7
:10196C0003D123F44073CA68134323F080034A69FC
:10197C00134303608B68C3620B688362044B984209
:10198C0002D00123436170470B690363F9E700BF81
:10199C00002C014040B310B5044690F83D30F3B133
:1019AC00022384F83D30214651F8040BFFF7B8FFB1
:1019BC00012384F8463084F83E3084F83F3084F8B4
:1019CC00403084F8413084F8423084F8433084F855
:1019DC00443084F8453084F83D30002010BD80F848
:1019EC003C30FEF7FFFFDBE70120704740B310B53A
:1019FC00044690F83D30F3B1022384F83D30214683
:101A0C0051F8040BFFF78CFF012384F8463084F85F
:101A1C003E3084F83F3084F8403084F8413084F80C
:101A2C00423084F8433084F8443084F8453084F8EC
:101A3C003D30002010BD80F83C30FFF7AFFEDBE7F7
:101A4C000120704730B4036A23F010030362036A69
:101A5C004468826922F4E6420D6842EA052223F0CA
:101A6C0020038D6843EA05130E4DA84209D00D4D95
:101A7C00A8420ED0446082614A688263036230BC23
:101A8C00704723F08003CD6843EA051323F040032D
:101A9C00EDE724F440644D6944EA85048D6944EA19
:101AAC008504E7E7002C014038B590F83C30012B59
:101ABC0060D004460D46012380F83C300C2A1AD81D
:101ACC00DFE802F0071919191D191919311919191B
:101ADC0044000068FFF77CFD2268936943F008031B
:101AEC0093612268936923F00403936122689369DC
:101AFC0029690B439361002084F83C0038BD0068D1
:101B0C00FFF7A0FF2268936943F400639361226896
:101B1C00936923F48063936122689369296943EA8A
:101B2C0001239361E7E70068FFF780FD2268D36922
:101B3C0043F00803D3612268D36923F00403D36113
:101B4C002268D36929690B43D361D4E70068FFF796
:101B5C009FFD2268D36943F40063D3612268D36983
:101B6C0023F48063D3612268D369296943EA012392
:101B7C00D361C0E70220C1E710B4846824F47F4C21
:101B8C0042EA03220A4342EA0C02826010BC70470C
:101B9C0090F83C30012B66D010B50446012380F838
:101BAC003C30022380F83D300268936823F47F4375
:101BBC0023F0770393600B68602B40D022D8402B26
:101BCC0047D00BD9502B0ED1CA6849680068FFF773
:101BDC0083FD50212068FFF7A4FD04E0202B0CD0DE
:101BEC0008D9302B09D0012384F83D30002084F82B
:101BFC003C0010BD0BB1102BF5D119462068FFF736
:101C0C0090FDF0E7702B0ED0B3F5005FEBD1CB68F5
:101C1C004A6889680068FFF7AFFF2268936843F44D
:101C2C0080439360DFE7CB684A6889680068FFF7F8
:101C3C00A3FF2268936843F077039360D3E7CA68E5
:101C4C0049680068FFF75AFD60212068FFF769FDBD
:101C5C00C9E7CA6849680068FFF73EFD4021206863
:101C6C00FFF75FFDBFE70220704701F01F01012362
:101C7C0003FA01FC036A23EA0C030362036A02FA07
:101C8C0001F10B430362704710B50446084651BB83
:101C9C0094F83E30DBB2013B18BF0123002B5BD123
:101CAC00002839D1022384F83E30012201462068F5
:101CBC00FFF7DBFF23682A4A93423DD02368284A6A
:101CCC0093423ED0B3F1804F3BD0A2F59432934275
:101CDC0037D002F58062934233D01A6842F0010289
:101CEC001A60002039E0042908D008290DD094F896
:101CFC004130DBB2013B18BF0123CFE794F83F30F2
:101D0C00DBB2013B18BF0123C8E794F84030DBB2CB
:101D1C00013B18BF0123C1E7042805D0082807D0D0
:101D2C00022384F84130C0E7022384F83F30BCE73B
:101D3C00022384F84030B8E75A6C42F400425A64EB
:101D4C00BCE79A6802F00702062A07D01A6842F02C
:101D5C0001021A60002000E0012010BD0020FCE709
:101D6C00002C014038B504460D4600220068FFF7F0
:101D7C007CFF23681B4A934214D02368196A41F2F2
:101D8C001112114208D1196A40F24442114203D196
:101D9C001A6822F001021A609DB9012384F83E30C2
:101DAC00002038BD196A41F211121142E5D1196AAD
:101DBC0040F244421142E0D15A6C22F400425A647F
:101DCC00DBE7042D05D0082D07D0012384F8413022
:101DDC00E6E7012384F83F30E2E7012384F8403042
:101DEC00DEE700BF002C014090F83C30012B2CD0DA
:101DFC0010B4012380F83C30022380F83D30036896
:101E0C005A689C6822F0700C0A6842EA0C025A600C
:101E1C0003680F4A93420AD0B3F1804F07D0A2F562
:101E2C009432934203D002F58062934204D124F0A1
:101E3C0080044A6814439C60012380F83D300023E1
:101E4C0080F83C30184610BC70470220704700BF29
:101E5C00002C01407047704770B50D4E0D4D761B30
:101E6C00B61006D0002455F8043B01349847A6421E
:101E7C00F9D1094E094D00F0D5F8761BB61006D0F5
:101E8C00002455F8043B01349847A642F9D170BDA3
:101E9C0070280008702800087828000870280008AE
:101EAC00830730B548D0541E002A3FD00346CAB22F
:101EBC0001E0013C3AD303F8012B9D07F9D1032C27
:101ECC002DD9CDB245EA05250F2C45EA054536D965
:101EDC00A4F1100222F00F0C03F1200EE6444FEA9D
:101EEC00121C03F1100242E9045542E9025510326A
:101EFC007245F8D10CF1010214F00C0F03EB021235
:101F0C0004F00F0C13D0ACF1040323F003030433DF
:101F1C00134442F8045B9342FBD10CF003042CB144
:101F2C00CAB21C4403F8012B9C42FBD130BD644661
:101F3C001346002CF4D1F9E703461446BFE71A46C2
:101F4C00A446E0E7024B13B1024800F005B8704715
:101F5C0000000000711F0008002301461A461846B5
:101F6C0000F01AB838B5084B084D5B1B9C1007D015
:101F7C00043B1D44013C55F804399847002CF9D119
:101F8C00BDE8384000F054B87C28000878280008D8
:101F9C00704700BF704700BF2DE9F047DFF87CA009
:101FAC000646DAF8000098460F469146FFF7F0FF18
:101FBC001B4B1B68D3F8484124B365681F2D26DCE6
:101FCC005EB96B1C0235DAF80000636044F82570CA
:101FDC00FFF7E0FF0020BDE8F087012304EB85014B
:101FEC00C1F88890D4F88821AB401A43022EC4F86B
:101FFC008821C1F80881E4D1D4F88C211343C4F8AA
:10200C008C31DEE703F5A674C3F84841D5E7DAF85E
:10201C000000FFF7BFFF4FF0FF30DCE73804002073
:10202C006C280008F8B500BFF8BC08BC9E46704789
:0C203C00F8B500BFF8BC08BC9E46704719
:102048001400000014000000140000001400000038
:102058001600000016000000160000001600000020
:102068000F0000000F0000000D0000000D00000030
:102078000F0000000F0000000D0000000D00000020
:1020880014000000140000001400000014000000F8
:1020980016000000160000001600000016000000E0
:1020A8000F0000000F0000000D0000000D000000F0
:1020B8000F0000000F0000000D0000000D000000E0
:1020C80014000000140000001400000014000000B8
:1020D80016000000160000001600000016000000A0
:1020E8000F0000000F0000000D0000000D000000B0
:1020F8000F0000000F0000000D0000000D000000A0
:10210800120000001200000012000000120000007F
:102118001100000011000000110000001100000073
:1021280012000000110000000F0000000F00000066
:102138000D0000000D0000000D0000000D00000063
:102148001400000014000000140000001400000037
:10215800160000001600000016000000160000001F
:102168000F0000000F0000000D0000000D0000002F
:102178000F0000000F0000000D0000000D0000001F
:1021880014000000140000001400000014000000F7
:1021980016000000160000001600000016000000DF
:1021A8000F0000000F0000000D0000000D000000EF
:1021B8000F0000000F0000000D0000000D000000DF
:1021C80014000000140000001400000014000000B7
:1021D800160000001600000016000000160000009F
:1021E8001900000019000000190000001900000083
:1021F8001E0000001E0000001E0000001E0000005F
:102208001D0000001D0000001E0000001E00000050
:102218001D0000001D0000001B0000001B00000046
:102228001900000019000000190000001900000042
:10223800160000001600000016000000160000003E
:102248001400000014000000140000001400000036
:10225800160000001600000016000000160000001E
:102268000F0000000F0000000D0000000D0000002E
:102278000F0000000F0000000D0000000D0000001E
:1022880014000000140000001400000014000000F6
:1022980016000000160000001600000016000000DE
:1022A8000F0000000F0000000D0000000D000000EE
:1022B8000F0000000F0000000D0000000D000000DE
:1022C80014000000140000001400000014000000B6
:1022D800160000001600000016000000160000009E
:1022E8000F0000000F0000000D0000000D000000AE
:1022F8000F0000000F0000000D0000000D0000009E
:10230800120000001200000012000000120000007D
:102318001100000011000000110000001100000071
:1023280012000000110000000F0000000F00000064
:102338000D0000000D0000000D0000000D00000061
:102348000F0000000F0000000F0000000F00000049
:102358000D0000000D0000000F0000000F0000003D
:10236800120000001200000012000000120000001D
:102378000F0000000F000000120000001200000013
:1023880016000000160000001600000016000000ED
:1023980014000000140000001600000016000000E1
:1023A80019000000190000001900000019000000C1
:1023B80016000000160000001900000019000000B7
:1023C8001E0000001E0000001E0000001E0000008D
:1023D8001D0000001D0000001E0000001D00000080
:1023E8001B0000001B0000001B0000001B00000079
:1023F8001900000019000000190000001900000071
:102408001B0000001B0000001B0000001B00000058
:102418001B0000001B0000001B0000001B00000048
:102428000F0000000F0000000F0000000F00000068
:10243800120000001200000012000000120000004C
:102448001400000014000000140000001400000034
:10245800160000001600000016000000160000001C
:102468000F0000000F0000000D0000000D0000002C
:102478000F0000000F0000000D0000000D0000001C
:1024880014000000140000001400000014000000F4
:1024980016000000160000001600000016000000DC
:1024A8000F0000000F0000000D0000000D000000EC
:1024B8000F0000000F0000000D0000000D000000DC
:1024C80014000000140000001400000014000000B4
:1024D800160000001600000016000000160000009C
:1024E8000F0000000F0000000D0000000D000000AC
:1024F8000F0000000F0000000D0000000D0000009C
:10250800120000001200000012000000120000007B
:10251800110000001100000011000000110000006F
:1025280012000000110000000F0000000F00000062
:102538000D0000000D0000000D0000000D0000005F
:102548001400000014000000140000001400000033
:10255800160000001600000016000000160000001B
:102568000F0000000F0000000D0000000D0000002B
:102578000F0000000F0000000D0000000D0000001B
:1025880014000000140000001400000014000000F3
:1025980016000000160000001600000016000000DB
:1025A8000F0000000F0000000D0000000D000000EB
:1025B8000F0000000F0000000D0000000D000000DB
:1025C80014000000140000001400000014000000B3
:1025D800160000001600000016000000160000009B
:1025E800190000001900000019000000190000007F
:1025F8001E0000001E0000001E0000001E0000005B
:102608001D0000001D0000001E0000001E0000004C
:102618001D0000001D0000001B0000001B00000042
:10262800190000001900000019000000190000003E
:10263800160000001600000016000000160000003A
:102648001400000014000000140000001400000032
:10265800160000001600000016000000160000001A
:102668000F0000000F0000000D0000000D0000002A
:102678000F0000000F0000000D0000000D0000001A
:1026880014000000140000001400000014000000F2
:1026980016000000160000001600000016000000DA
:1026A8000F0000000F0000000D0000000D000000EA
:1026B8000F0000000F0000000D0000000D000000DA
:1026C80014000000140000001400000014000000B2
:1026D800160000001600000016000000160000009A
:1026E8000F0000000F0000000D0000000D000000AA
:1026F8000F0000000F0000000D0000000D0000009A
:102708001200000012000000120000001200000079
:10271800110000001100000011000000110000006D
:1027280012000000110000000F0000000F00000060
:102738000D0000000D0000000D0000000D0000005D
:102748001400000014000000120000001200000035
:102758001600000016000000190000001900000013
:102768001B0000001B0000001900000019000000F9
:1027780016000000160000001400000014000000FD
:102788000F0000000F0000000F0000000F00000005
:102798000F0000000F0000001200000012000000EF
:1027A80014000000140000001400000014000000D1
:1027B80016000000160000001600000016000000B9
:1027C8000F0000000F0000000F0000000F000000C5
:1027D8000F0000000F0000000F0000000F000000B5
:1027E800250000002500000025000000250000004D
:1027F8000D0000000D0000000D0000000D0000009D
:102808000F0000000F0000000F0000000F00000084
:102818000F0000000F0000000F0000000F00000074
:10282800250000002500000025000000250000000C
:1028380025000000250000002500000025000000FC
:102848000000000000000000010203040607080958
:1028580002030405060708090A0B0C0D0E0F1010D9
:08286800000000001000002038
:08287000511F000831010008AE
:042878000D01000846
:10287C00010000000024F400010000001000000022
:10288C0000000000FC02002064030020CC030020A8
:10289C00000000000000000000000000000000002C
:1028AC00000000000000000000000000000000001C
:1028BC00000000000000000000000000000000000C
:1028CC0000000000000000000000000000000000FC
:1028DC0000000000000000000000000000000000EC
:1028EC0000000000000000000000000000000000DC
:1028FC0000000000000000000000000000000000CC
:10290C0000000000000000000000000000000000BB
:10291C0000000000000000000000000000000000AB
:10292C00000000000000000001000000000000009A
:10293C000E33CDAB34126DE6ECDE05000B0000005F
:10294C00000000000000000000000000000000007B
:10295C00000000000000000000000000000000006B
:10296C00000000000000000000000000000000005B
:10297C00000000000000000000000000000000004B
:0C2CAC00000000000000000008050020EF
:0400000508000B895B
:00000001FF
